:020000040000FA
:020000000528D1
:08000800242883120313850173
:100010008601870109309F00831604309F0032302B
:100020008500003086000030870083128316073079
:10003000810083123C3081008316E0308B008312F4
:1000400003130030C10023282A0AAA003C30810093
:100050000B1117214108C000003E400D82074620C9
:10006000452853204528622045287D204528982092
:100070004528B3204528C0204528DB204528F62008
:100080004528072145280F21452809000030B000E8
:100090008700851E4F284C280130C10051280030B0
:1000A000C100AA0108001830B000870050302A02B1
:1000B000031D5B285E280130C10061280230C100A9
:1000C000AA0108002C30B0008700A0302A02031DCE
:1000D0006D286A280A30C1007B281F151F196E2859
:1000E0001E08AB0070082B05AB00B0302B02031DBF
:1000F0007C280330C100AA0108003430B00087001A
:10010000C8302A02031D882885280A30C100962895
:100110001F151F1989281E08AB00F0302B05AB00F6
:10012000B0302B02031D97280430C100AA0108003B
:100130004230B0008700A0302A02031DA328A02867
:100140000A30C100B1281F151F19A4281E08AB00D2
:10015000F0302B05AB00B0302B02031DB228053068
:10016000C100AA0108005030B0008700051EB92860
:10017000BC280530C100BE280630C100AA01080015
:100180006230B0008700F0302A02031DCB28C82857
:100190000A30C100D9281F151F19CC281E08AB0032
:1001A000F0302B05AB00B0302B02031DDA280730EE
:1001B000C100AA0108007330B0008700A0302A02F5
:1001C000031DE628E3280A30C100F4281F151F1973
:1001D000E7281E08AB00F0302B05AB00B0302B0237
:1001E000031DF5280830C100AA0108008030B000C6
:1001F00087000030860050302A02031D00290329A1
:100200000830C10006290930C100AA010800903059
:10021000B0008700003086000930C1000800F030CF
:10022000B0008700003086000A30C10008000030AE
:100230002B02031D1E293F308600080010302B02C0
:10024000031D252906308600080020302B02031DDF
:100250002C295B308600080030302B02031D332927
:100260004F308600080040302B02031D3A296630CB
:100270008600080050302B02031D41296D30860096
:10028000080060302B02031D48297D3086000800DD
:1002900070302B02031D4F29073086000800803084
:1002A0002B02031D56297F308600080090302B0258
:0A02B000031D08006F3086000800EF
:02400E00793FF8
:00000001FF
